:020000040800F2
:10000000500D002071010008790100087B010008F3
:1000100000000000000000000000000000000000E0
:100020000000000000000000000000007D0100084A
:1000300000000000000000007F01000881010008AE
:10004000830100080000000083010008830100080C
:100050008301000883010008830100088301000870
:1000600000000000830100088301000883010008EC
:1000700083010008830100088301000800000000DC
:10008000A11000080000000000000000830100082B
:10009000000000008301000883010008D90800085F
:1000A0000000000083010008000000008301000838
:1000B00000F002F800F030F80CA030C8083824181E
:1000C0002D18A246671EAB4654465D46AC4201D190
:1000D00000F022F87E460F3E0FCCB6460126334292
:1000E00000D0FB1AA246AB463343184770330000DA
:1000F000903300000023002400250026103A01D38D
:1001000078C1FBD8520700D330C100D50B607047CF
:100110001FB51FBD10B510BD00F013FA1146FFF753
:10012000F7FF01F00DF800F02BFA03B4FFF7F2FF30
:1001300003BC00F031FA000070B505460C461646C7
:1001400002E00FCC0FC5103E102EFAD2082E02D3BB
:1001500003CC03C5083E042E07D301CC01C5361FCE
:1001600003E021782970641C6D1C761EF9D270BDE5
:100170000748804707480047FEE7FEE7FEE7FEE73F
:10018000FEE7FEE704480549054A064B70470000B4
:100190009D100008B100000850070020500D0020FD
:1001A0005009002050090020002203098B422CD363
:1001B000030A8B4211D300239C464EE003460B43B7
:1001C0003CD4002243088B4231D303098B421CD319
:1001D000030A8B4201D394463FE0C3098B4201D30B
:1001E000CB01C01A524183098B4201D38B01C01A43
:1001F000524143098B4201D34B01C01A52410309BA
:100200008B4201D30B01C01A5241C3088B4201D368
:10021000CB00C01A524183088B4201D38B00C01A15
:10022000524143088B4201D34B00C01A5241411A3C
:1002300000D201465241104670475DE0CA0F00D01F
:100240004942031000D34042534000229C46030918
:100250008B422DD3030A8B4212D3FC22890112BA9E
:10026000030A8B420CD3890192118B4208D3890176
:1002700092118B4204D389013AD0921100E089098E
:10028000C3098B4201D3CB01C01A524183098B426F
:1002900001D38B01C01A524143098B4201D34B0158
:1002A000C01A524103098B4201D30B01C01A5241BB
:1002B000C3088B4201D3CB00C01A524183088B4242
:1002C00001D38B00C01A5241D9D243088B4201D3CB
:1002D0004B00C01A5241411A00D2014663465241B6
:1002E0005B10104601D34042002B00D549427047B5
:1002F00063465B1000D3404201B50020C046C046B3
:1003000002BD704770477047F0B5FF252D04C60940
:10031000C209FF2704462E400137CB093E4348401F
:100320002A402B400746002A6BD0002B69D0AA42F6
:1003300067D0AB4265D0002800DA32460125ED05D2
:1003400029432C4309022002090AD21A4B0C7F24AC
:10035000E31A434C000A7C44E35C7D242404121914
:1003600014145B00A218884201D3521C00E0400024
:1003700049420C465C4324115C43DB016415E318DD
:10038000040A5C43C502200D0C4644436419250A47
:100390005D432303EC0C0D46654300030019EB1885
:1003A0004C42A34201D35B18401CD4052018002BFB
:1003B00007D05B00C91804D3401C002901D14008B4
:1003C00040003F2189048A4209D3002A08DC110633
:1003D000090F04D0032149074018C00FC007F0BD22
:1003E00001224100120689187F2252069142F6D25C
:1003F00005214907C84201D59010F0BDFF20C00576
:10040000F0BD002F00DA32461648AA4207D2AB42AE
:1004100005D21902090E17D0F80FC007F0BDFF254D
:1004200063002D06AB42F9D84900A942F6D8AB4289
:1004300001D1A942F2D0A94201D1002101E061001D
:100440004908D0050843F0BD1102090EFBD0FF207A
:100450000243D005F0BD0A460146104654E70000AD
:10046000C23000000000C07F10B501469E2400028B
:10047000CA15A307002A02D01843002A04DBA21AD7
:10048000002A0CDDD04010BD1206120E01D1400032
:100490004008A21A03D4D04040420028F3DDFF22D6
:1004A00048001206904201D9002010BDC817C04371
:1004B000584010BD0102C21504D00123DB071943C7
:1004C000002A0ADB9E239A1A02D40846D0407047BD
:1004D000FF2241001206914201D900207047C01747
:1004E000C04370471F22030C02D10F2200041CD00E
:1004F000030E01D10002083A030F01D10001121FBF
:10050000830F01D18000921E002801DB4000521EA3
:10051000D2055118021251181922904004D3491CD7
:10052000002801D14908490008467047C10FC90792
:1005300000D04042012292071143D3E701218907ED
:10054000D0E7754600F024F8AE46050069465346EC
:10055000C008C000854618B020B5FFF713FE60BC88
:1005600000274908B6460026C0C5C0C5C0C5C0C5DD
:10057000C0C5C0C5C0C5C0C5403D49008D46704717
:1005800010B50446C046C0462046FFF7CEFD10BD5C
:1005900000487047EC06002001491820ABBEFEE77A
:1005A00026000200704770B58C180578401C6B0758
:1005B0005B0F01D10378401C2A1106D10278401C40
:1005C00003E00678401C0E70491C5B1EF9D12B0716
:1005D00005D40023521E0DD40B70491CFAE7037892
:1005E000401CCB1A921C03E01D780D70491C5B1C4B
:1005F000521EF9D5A142D8D3002070BD10B51048C5
:1006000081694215114381610E488168520311438B
:1006100081600D48826A01210A43826202694305B2
:100620001A43026182680A4382600168C907FCD0EC
:100630008168042211438160032000F023FD10BD76
:10064000001002400027014000240140F8B5154683
:100650000246491EC8B241000024515A1A4E234690
:10066000A94202D81188A9420ED23381F8BD2118BF
:1006700049084B00D35AAB4201D1318107E0AB426C
:1006800001D2084600E00C46011B0129EFDC4000C6
:100690006100105A575AC01BFFF748FF0090E81B33
:1006A000FFF744FF0099FFF72FFE0546601CFFF798
:1006B00045FF294600F0C8FF044900F06DFFFFF731
:1006C000D3FE3081F8BD0000000000200000204172
:1006D0000B4B30B41946083904684A68002C05D021
:1006E000012C05D0032C07D1926802E0526800E08B
:1006F00012689A4200D04A604968496930BC08478C
:10070000400000200020054A0146142343439B1863
:10071000D960401C19610428F7D370470C020020EF
:10072000F8B5254E05467768386A1CC82868002841
:1007300022D001282AD0022802D0032835D10DE08A
:100740002869012802D0022804D02EE0521E02E0BF
:1007500022462AE00A3AA242FAD326E02869012872
:1007600002D0022804D020E0521C02E01A461CE00D
:100770000A329A42FAD818E02869022815D10F489F
:100780000121806948400D4988610EE028690128EF
:1007900001D100F061FC2869022806D17068064981
:1007A000C0680831884200D07060386A1CC0706828
:1007B000416928468847F8BD3800002070020020B3
:1007C00030B52F484169012252041143416141690A
:1007D0005200114341610920C006016803239B02B6
:1007E0009943016001689B009943016001689B0087
:1007F0009943016023490B680C24A3430B60C46830
:1008000013121C43C460C46895112C43C460C468AF
:1008100015112C43C460CC6804252C43CC600168BE
:10082000542421430160046851120C4304600262A5
:1008300002688C022243026002680C0322430260B9
:1008400042680A434260416819434160816803225B
:100850009204114381608168920011438160C168F4
:10086000052292041143C16011218901416202688D
:1008700003210A43026082680A43826030BD00009F
:1008800000100240000400480149C00008587047A9
:10089000EC0100200069084000D0012070470000F2
:1008A0000249002248784A70704700003800002052
:1008B00004480178002903D00021017002487047E4
:1008C00000207047340000205C020020014908200D
:1008D000085E70470000002070B524488169244BF1
:1008E000890704D559684A1C5A6009788162816970
:1008F000204C490602D5416821434160816949077E
:100900000ED5456A1A4A0832117856687618491C7D
:10091000117035701178062902D341682143416076
:100920008169154DC90607D51021C1614168214370
:1009300041602978491C29708169002489060029B1
:1009400007DA2021C161016849084900016044605B
:100950001C708169890502D5046000F019F82878B7
:10096000032802D3012068702C7070BD0054004031
:10097000140000200040000010000020034880699F
:10098000000401D50120704700207047005400404A
:100990000C48C169012252051143C1610B480A4943
:1009A0000161016836221143016001200849C00538
:1009B0000860084801680902090A520711430160EA
:1009C000704700000010024009033330005400401B
:1009D00000E100E014E400E070B50646FFF7CEFF4A
:1009E0000028FBD10F4C00252570626023700E4A51
:1009F0005560700089020843012149064018190416
:100A00000843506010680121084310605068490392
:100A1000084350607D2189010220401C8842FCD39C
:100A200070BD0000140000200054004006485E2104
:100A3000016063214160282181600321C1600021A0
:100A4000016141617047000070020020054810B547
:100A5000014630394860416900208847022000F093
:100A600011FB10BD6800002010B5FFF74BFE0A48CF
:100A700080214160202181610221C1624021016405
:100A80000921C9068160054AC161026341640120F0
:100A900000F0F8FA10BD00000C020020000400482D
:100AA0007CB5002000F0B4FB0021142000F06AFCAB
:100AB000204C012306CC20A0083C00F0F4FC1F4D84
:100AC000A869002806D00021042000F05BFC012367
:100AD0001BA005E00021042000F054FC012319A014
:100AE00006CC083C00F0DFFC0A226946286800F0CA
:100AF000F0FC1C21042000F045FC06CC01236846D4
:100B000000F0D1FCFFF7E2FE0A21FFF757FB0A22B3
:100B1000694600F0DEFC0021402000F033FC0A486A
:100B2000012306C8684600F0BEFC084800F032FC0D
:100B30007CBD00007801002023000000700200202E
:100B40002A00000020000000800100203A00002060
:100B5000F8B5002000F05CFB0F4D00246868007FB2
:100B6000A04201D1002600E001262701F9B20020B1
:100B700000F008FC68680949806906C9C019334655
:100B800000F091FC641CE4B2042CE7D30248801C02
:100B900000F000FCF8BD00003800002070010020CB
:100BA00010B51148C16982151143C1617D210F48FB
:100BB000C90081620821C1620721416381696822FD
:100BC00011438161026A01210A430262074A4032ED
:100BD0005368C4132343536002680A4302604269A6
:100BE0000A43426110BD0000001002400020004096
:100BF000F8B50120FFF748FE64281BD3154E0025E9
:100C000014202F464743BC196168A068FFF742FED5
:100C1000002810D02069002803D0F551204600F0AC
:100C200023FA00202061E0606D1C042DE8D3012030
:100C300000F00AFAF8BDE068401CE060012805D029
:100C40001E28F1D3022020611E20ECE70120206144
:100C5000EAE700000C02002010B50220FFF714FEA6
:100C6000FF21F53188420FD3FFF722FE0749002804
:100C700004D14A6820321279002A02D049680969F1
:100C80008847022000F0E0F910BD00003800002085
:100C900070B50320FFF7F8FD052846D3234C002547
:100CA00023482570826804210A438260204B403328
:100CB0000268520733D51A68A6881205920D921958
:100CC000A2802278521CD2B22270102A23D325701F
:100CD0006078184B41005A5AE668401CB61AA28840
:100CE000C00692085A529119C00EE1606070A07857
:100CF000401CC0B2A07020280BD32020A070C802D6
:100D0000020C6A210C48FFF7A1FCE068C002000C4D
:100D1000E080A58006E082680A438260C8E7227806
:100D2000102AC5D3032000F08FF970BD0000002009
:100D300000240140AC01002018170008F8B500207D
:100D4000FFF7A2FD64286FD3684C02272178684D15
:100D50000026002906D0012933D002296BD00329AF
:100D60002ED1B3E06078002818D00920C006416970
:100D700039434161416904221143416142690821BB
:100D80008A434261A660FFF7A1FD81B22888002254
:100D900080B200F0EFF8E06020786070FFF780FD2F
:100DA000012802D0A86900280AD0FFF78FFD0A2188
:100DB000FFF704FAEA682968891A884200D8277080
:100DC0008FE06078012818D00920C0064169B94336
:100DD00041614169042211434161426908218A430A
:100DE0004261A660FFF772FD81B22888022280B2BC
:100DF00000F0C0F8E06020786070FFF767FD0A211E
:100E0000FFF7DCF9EA682968891A884211D8A068D6
:100E1000401CA060642853D3A660FFF757FDA1884B
:100E2000884202DC27704BE05EE0FFF74FFDA080B8
:100E300046E0267044E0607802281BD0A660FFF7E9
:100E400045FD81B22888012280B200F093F8E0606D
:100E50000920C0064169B9434161426904218A43BE
:100E600042614169082211434161FFF72FFDA080D3
:100E700020786070A07800280BD0FFF727FD81B2A2
:100E80002888012280B200F075F8E060A068401C5C
:100E9000A060FFF71BFDA1880127491C884200DDE7
:100EA000A770E168A068884207D2FFF70FFD0A210A
:100EB000FFF784F92968884202D3A670A660B1E7DB
:100EC000FFF7EEFC01280CD126700AE060780328B9
:100ED00007D00920C006426908239A434261A660F0
:100EE0006170002000F0B0F8F8BD00002400002080
:100EF0007002002030B51D4801680122120691439E
:100F000001601B490C6801231C430C600C68102510
:100F10002C430C6001681943016001688907FCD506
:100F20004168416041684160C16AC1624168012312
:100F30001B049943416041680F239B04994341601E
:100F4000416801231B051943416001681143016099
:100F500001688901FCD54168022211434160416862
:100F60000907890F0229FAD130BD000000100240A4
:100F700000200240F8B50D460A21484300272E4CB8
:100F800081B2002A43D0022A46D020892246D68840
:100F9000002843D0E1680A292CD3E7602178491C56
:100FA000C9B22170854222D3281AFFF707F92770AA
:100FB0006178224A8C464900535A276980B25052C0
:100FC0006146FB1A491CC0188907890F20616170AE
:100FD000A178491CC9B2A170042907D30421800358
:100FE000000CA170A080864200D2E08025811448C8
:100FF000E1880161E068401CE060A188A0690029E7
:1010000002D0E188FFF7D0F80D494861F8BDA7612B
:1010100027810120E080EDE72781EBE7481BFFF700
:1010200085FA084900F0B8FAFFF744FA60617043A6
:10103000A0612581DEE7000090010020DC06002091
:1010400070020020666606400021024AC00011506E
:1010500070470000EC010020062801D201494870C9
:10106000704700003800002010B5014614220348E4
:10107000FFF762F802490120087010BD5C020020F1
:1010800034000020044AC10088180379002B02D1E3
:101090005350012101717047EC010020704700009E
:1010A0000B480169C90711D001694908490001616C
:1010B00008490020C20053181B79012B02D18B581C
:1010C0005B1C8B50401CC0B20428F3D37047000057
:1010D00000040040EC010020002013490246C30038
:1010E000CA505B181A71401CC0B20428F7D30F48CD
:1010F000C16902231943C1610E480D49816204216F
:10110000C1620261C26801210A43C26002680A43E7
:101110000260094980130860084801688022090AB2
:101120000902114301607047EC01002000100240E9
:10113000BF1200000004004000E100E010E400E005
:1011400008B5FFF7D7FEFFF73BFBFFF721FC68462A
:1011500000F078F8FFF724FDFFF7BEFFFFF74EFA27
:10116000174C0120401CA042FCD3002000F050F896
:10117000684600F00FF90220401CA042FCD3092071
:10118000C0064169022211434161416904221143B1
:1011900041610C480168012251400160FFF746FCA3
:1011A000FFF762FCFFF752FC0020FFF76BFFFFF731
:1011B0001FFDFFF751FDFFF76BFDFFF7BFFDF6E7E2
:1011C00000350C000020004070B5802817D240295F
:1011D00015D20D4B4C071D790123640FA340C9089C
:1011E0000A4ECC01091989190818002D02D0002ACD
:1011F00006D001E0012A03D041789943417070BDC7
:1012000041781943FAE7000088010020D402002049
:1012100070B500220A4B8124E400002100280DD083
:10122000FF25CE018E19F618B618491CC9B2757083
:101230000829F3D3521CA242EFD370BD0025F0E77A
:10124000D402002070B50546AE2100F01FF9044617
:101250002021284600F01AF904191021284600F030
:1012600015F90419B021284600F010F90419C82115
:10127000284600F00BF904190021284600F006F971
:1012800004191021284600F001F9041940212846CC
:1012900000F0FCF804198121284600F0F7F8041941
:1012A000FF21284600F0F2F80419A121284600F099
:1012B000EDF80419A621284600F0E8F80419A82141
:1012C000284600F0E3F804193F21284600F0DEF834
:1012D0000419A421284600F0D9F80419D32128467E
:1012E00000F0D4F804190021284600F0CFF80419C2
:1012F000D521284600F0CAF80419F021284600F04C
:10130000C5F80419D921284600F0C0F80419222193
:10131000284600F0BBF80419DA21284600F0B6F898
:1013200004191221284600F0B1F80419DB212846DF
:1013300000F0ACF804192021284600F0A7F80419A1
:101340008D21284600F0A2F804191421284600F047
:101350009DF80419AF21284600F098F8E04201D02A
:10136000012070BD0120FFF753FF284600F012F85E
:10137000034800210180418001214171002070BD9E
:1013800088010020024A803810804039518070471F
:1013900088010020F8B500240F4D0746402620465E
:1013A000B030C1B2384600F071F80021384600F084
:1013B0006DF81021384600F069F8E00120182E542D
:1013C0004219812300213C20FFF706FB641CE4B294
:1013D000082CE4D3F8BD0000D4020020FFB582B091
:1013E0006846847B467B002C45D0007B0299081A16
:1013F00060430190102E08D90120C0070090019889
:101400000499001980000F5810E0082E08D9012017
:10141000C00300900198001941000498475A05E064
:1014200080200090049901984018275C350020D056
:1014300038460099A84008420AD01348059A817896
:1014400000780919494240194042C9B2C0B20CE0C3
:101450000598002816D000220B48817800780919D9
:10146000401949424042C9B2C0B2FFF7ADFE6D1EFD
:10147000DED1641EBED1044801888919018002981A
:1014800006B0F0BD0122E7E78801002008B5002082
:1014900000906846417002236A4600213C20FFF715
:1014A0009BFA002008BDF0B51D460E4617460446BF
:1014B0000AE02B463A463146FFF790FF21788842F2
:1014C00001D0C8B2F0BD641C20780028F1D1C0B2B0
:1014D000F0BD70B516460C4605463146FEF764FE73
:1014E000641C0028F9D12070641E31462846FEF79E
:1014F0005BFEC9B205460A2901D3C91DC9B2303104
:101500002170641E002DF0D1204670BD70B50125FC
:101510000400ED074C4020D4441A01D2001B0919E5
:10152000C60D4B00F2B2FF2A29D01B0E2CD00002B0
:101530000C02D31A2C43DC402843051910D2280A88
:1015400002D3401C6D0611D0761EF6058019FF2AC5
:1015500000DA70BDC00DC00570BD694000F07AF8BA
:1015600001200543C541521C761CE8E764089C40F5
:10157000C90161408900E7D10124A043E4E71B0EC3
:10158000440200D0034870BD002AFCD1C00FC00740
:1015900070BD00BF0000C07F70B5420064414B00C9
:1015A0005C41120E39D01B0E38D0FF2A3CD0FF2BE5
:1015B0003AD040024902400A490A060045184E4303
:1015C000000A090AD2184843ED017F3A0104731A50
:1015D0004019190C4318990F04D001215B084907E1
:1015E0005B1A521CD80904D3401CF50301D19D0697
:1015F00007D0FF2A08D2D50506D0E40720434019BA
:1016000070BD0125A843F4E7002A01DCE00770BDA6
:101610002402FF202043C00570BD1B0EFF2A03D00B
:10162000FF2B01D0E00770BDFF2645003606B5420E
:1016300006D84D00B54203D8D218FF2A00D0E7E7FC
:10164000004870BD0000C07F70B501250400ED07A3
:101650004C4022D4441A02D26C40001B0919C60D1A
:101660004B00F2B2FF2A4BD01B0E50D000020C02EE
:10167000D31A2C43DC40A843051B05D5AD0019D374
:101680006D08761E521E37D0F605280A01D2801941
:1016900070BD70416D0603D070BD6940FFF73CFF1F
:1016A0009C4009026140490001D0401E70BD0124E8
:1016B000A04370BD6D081DD001202B0C01D12D045D
:1016C00010302B0E01D12D0208302B0F01D12D012E
:1016D000001DAB0F01D1AD00801CEB0F01D16D00DF
:1016E000401C6D00361A121A680AF5054019012AC5
:1016F00002DB70BD002070BDC036300AC00770BD6F
:101700001B0E440201D1FF2B00D1024870BD002AFC
:10171000F0D070BD0000C07FD90DBE0DA20D850DAB
:10172000670D480D280D080DE70CC40CA10C7E0CAC
:10173000590C330C0D0CE60BBF0B970B6E0B440BC7
:101740001A0BF00AC50A9A0A6E0A420A150AE90932
:10175000BC098F09620935090709DA08AD08800854
:1017600054082708FB07CF07A30778074D0723076F
:10177000F806CF06A6067D0656062E060706E105E4
:10178000BC05970573054F052C050A05E904C80437
:10179000A80488046A044C042E041104F503DA0337
:1017A000BF03A5038C0373035B0344032D031703DB
:1017B0000103EC02D702C302B0029D028B02790240
:1017C0006702570246023602270218020902FB018D
:1017D000ED01E001D301C601BA01AE01A2019701FA
:1017E0008C01820178016E0164015B010000000040
:1017F0000000000000000000000010383810100049
:101800001000000000000000280028000000000078
:101810000000000000287C28287C28000000000030
:1018200018183C242004241818000000000000743C
:101830005820281408000000000000003828305C00
:10184000483C0000000000000010001000000000F4
:1018500000000000000018202020201800000000D8
:1018600000000030181818182000000000000000C8
:10187000002C38382C000000000000000000181870
:101880001818000000000000000000000000001018
:101890000000000000000000000000000000000048
:1018A0000000000000000000001000000000000028
:1018B00000040808181020200000000000003C2C44
:1018C0002C343418000000000000003818181818D4
:1018D0003C000000000000003C240418103C000004
:1018E00000000000003C2404042418000000000054
:1018F00000000C1C14243C04000000000000003C0C
:101900002020042418000000000000001C202024D7
:101910002418000000000000003C040818181800FB
:101920000000000000003C242424241800000000D3
:101930000000003C24240404180000000000000003
:101940000010100000100000000000000000101047
:10195000000010000000000000000818101018001F
:101960000000000000000000003C3C0000000000FF
:1019700000000000201018181020000000000000D7
:10198000003C2404180018000000000000003C2463
:101990002C2C201C000000000000003C24243C24CF
:1019A00024000000000000003C242424243800000F
:1019B00000000000003C242020241800000000004B
:1019C00000003C2424242438000000000000003CD7
:1019D000202020203C000000000000003C202020AF
:1019E0002020000000000000003C242024241800D7
:1019F000000000000000242424242424000000000F
:101A00000000003C181818183C00000000000000FE
:101A10001C040404241800000000000000242828EE
:101A20002828240000000000000020202020203C66
:101A3000000000000000004C6C7C4C4C4C0000008E
:101A4000000000002434342C242400000000000096
:101A5000003C2424242418000000000000003C2442
:101A600024202020000000000000003C2424242426
:101A700018180000000000003C2424242424000046
:101A800000000000003C2420042418000000000096
:101A900000003C181818181800000000000000246E
:101AA000242424241800000000000000242424180A
:101AB0001818000000000000004C5C5C5C5C280012
:101AC000000000000000241818181824000000006E
:101AD0000000002424241818180000000000000052
:101AE0003C040810203C00000000000000382020CA
:101AF00020203800000000000000202010101818DE
:101B00000000000000000038181818183800000005
:101B10000000000018242400000000000000000065
:101B2000000000000000000000000000000018009D
:101B300000000000000000000000000018241C2429
:101B40001C0000000000000020382424243800007D
:101B500000000000000018242024180000000000ED
:101B60000000041C2424241C0000000000000000CD
:101B700018243C2018000000000000001C183C182D
:101B8000181800000000000000001C2424241C047D
:101B90001800000000002038242424240000000045
:101BA00000001818381818183C0000000000000841
:101BB0000838080808080830000000000020242425
:101BC0003828240000000000000038181818183CBD
:101BD0000000000000000000687C5C5C4C0000001D
:101BE000000000000038242424240000000000002D
:101BF0000000182424241800000000000000003811
:101C00002424243820200000000000001C24242468
:101C10001C040400000000000038242020200000E4
:101C20000000000000001824180418000000000044
:101C30000000183C1818180C0000000000000000FC
:101C4000242424241C000000000000000024241888
:101C5000181800000000000000004C5C5C5C2800CC
:101C600000000000000000242418182400000000D8
:101C700000000000242424241C041800000000009C
:101C8000003C0418103C0000000000000018101078
:101C900010101800000000000000101010101010AC
:101CA000000000000000003818181818300000006C
:101CB000000000000000002C0000000000000000F8
:101CC00018181818181800000000000000007830DC
:101CD0003036363C000000000018003C2020202058
:101CE00020000000000000000000000000000000D4
:101CF0000000000008183C20202020000000000008
:101D000000000000000000000000000000000000D3
:101D100000000000000000000000000000000000C3
:101D200020207C2000000000000000000020207C1B
:101D30002000000000003C2C70702C3800000000D7
:101D40000000000004080C442864586000000000F3
:101D50003828282A2A4E0000000000000000000059
:101D60000000002818000000000050505056565C3B
:101D70000000000000180024282828282400000063
:101D800000000000783030363636000000000000D9
:101D90000024242424243C18000000000020703873
:101DA0002C2C2C2C0C000000000000000000000077
:101DB00000002800000000000000000000000000FB
:101DC000380000000000000000000038003800006B
:101DD00000000000000000002800280000000000B3
:101DE0000000000000383800000000000000000083
:101DF0000010101010000000000000001010101063
:101E000010100000000000000000000000000000B2
:101E1000000000000000381020002020000000001A
:101E20000038282E2A4E00000000000000000000AC
:101E3000000000182800000000000050507C565C94
:101E400000000000000008182424382824000000A6
:101E50000000002070382C2C2C2C0000000000000A
:101E60000000242424243C1800000000000000008E
:101E700000000000000000000018002424240424B6
:101E8000180000000000002418242424241C041836
:101E900000000000001C04040424180000000000DE
:101EA00000004C3048483004000000000000043CB2
:101EB0002020202020000000000000001010101042
:101EC0001010000000000000003C2018242418041A
:101ED0001800000024003C202020203C00000000CE
:101EE0000000003C526A6A52380000000000000006
:101EF0003C242020241800000000000000006C5842
:101F0000586C0000000000000000000000101000ED
:101F100000000000003C2424242424243C00000071
:101F2000000000003C726A6A6A3800000000002469
:101F3000003C181818183C00000000000000382869
:101F40001000000000000000000000001818181821
:101F50003C000000000000003C181818183C00006D
:101F6000000000001818381818183C000000000085
:101F70000000043C202020200000000000000000A1
:101F80002424242438202000000000007C7C7C3C99
:101F90003C3C0000000000000000000010000000B9
:101FA0000000000000242418243C20180000000039
:101FB00000000000785878007C08307C00000000A9
:101FC0000018243820180000000000000000482CF1
:101FD0002C48000000000000000808380808080825
:101FE000083000000000003C2420042418000000F9
:101FF0000000000000182418041800000000000071
:102000002424381818183C000000000000003C246C
:10201000243C242400000000000000382020242458
:1020200038000000000000003C2424242438000074
:1020300000000000003C20202020200000000000C4
:1020400000003C2C2C2C2C7E460000000000003CA4
:10205000202020203C00000000000000563C3C3CBA
:102060003C56000000000000003C2404042418003A
:10207000000000000000242C2C3424240000000068
:10208000001800242C2C3424240000000000000040
:10209000242828282824000000000000003C2C2CC4
:1020A0002C2C4C000000000000004C6C7C4C4C4C74
:1020B0000000000000000024242424242400000048
:1020C000000000003C24242424180000000000002C
:1020D000003C2424242424000000000000003C24B0
:1020E00024202020000000000000003C24202024A8
:1020F00018000000000000003C1818181818000014
:102100000000000000242424042418000000000023
:1021100000007E5656563C100000000000000024CF
:10212000181818182400000000000000484848480B
:10213000487C0C0000000000002424240404040057
:1021400000000000000056565656567E0000000063
:1021500000000056565656567E0200000000000051
:102160006020202C2C38000000000000004646466D
:10217000565676000000000000002020202424385D
:10218000000000000000003C2404042418000000AB
:10219000000000005E565656564C0000000000003D
:1021A000003C242424242400000000000000001827
:1021B000241C241C000000000000001C20382424E3
:1021C0001800000000000000003824382438000007
:1021D0000000000000003C20202020000000000043
:1021E0000000003C2C2C2C7E46000000000000006B
:1021F00018243C201800000000000000005656384B
:102200003C560000000000000000182418041800CC
:102210000000000000000024242C342400000000F2
:102220000000241824242C342400000000000000A6
:1022300000242438282400000000000000003C2C6A
:102240002C2C4C0000000000000000444C7C5C4C36
:10225000000000000000000024243C2424000000B2
:1022600000000000001824242418000000000000D2
:1022700000003C242424240000000000000000385A
:1022800024242438202000000000000018242024EA
:102290001800000000000000003C1818181800008A
:1022A000000000000000242424241C041800000066
:1022B0000000003C5656563C101000000000000084
:1022C000242418182400000000000000004848489A
:1022D000487C0C0000000000000024241C040400C2
:1022E00000000000000000565656567E0000000018
:1022F00000000000565656567E0200000000000006
:10230000006060382C3800000000000000004646E5
:1023100076567600000000000000002020382438A7
:10232000000000000000000018241C041800000039
:1023300000000000004C5676564C000000000000E3
:1023400000001C241C2424000000000000000000E9
:10235000000000000000000000000000000000007D
:10236000000000000000000000000000000000006D
:10237000000000000000000000000000000000005D
:10238000000000000000000000000000000000004D
:10239000000000000000000000000000000000003D
:1023A000000000000000000000000000000000002D
:1023B000000000000000000000000000000000001D
:1023C000000000000000000000000000000000000D
:1023D00000000000000000000000000000000000FD
:1023E00000000000000000000000000000000000ED
:1023F00000000000000000000000000000000000DD
:1024000000000000000000000000000000000000CC
:10241000000000000000000000000000F03FF87F16
:102420002C6326632663E66306600660066F06601B
:10243000C66F0660F66F0660FE7FFE7F000000003C
:10244000000000000000000000000000000000008C
:102450000000000000000000F07FF8FF2CC727C735
:1024600023C7E3C703C003C003C083DF03C0E3DFA8
:1024700003C0FBDF03C0FFFFFFFF00000000000000
:10248000000000000000000000000000000000004C
:10249000000000000000000000000000000000003C
:1024A000000000000000000000000000000000002C
:1024B000000000000000000000000000000000001C
:1024C00000000000000000000000000000002002EA
:1024D0006006C24CC66C66666666366336636666C0
:1024E0000660FE7FFE7F000000000000000000008C
:1024F000000000000000FE7F00000000000000005F
:1025000000000000000000000000000000001004B7
:10251000300C619863D833CC33CC1BC61BC633CC8C
:1025200063D803C0FFFFFFFF0000F624A954A98C65
:10253000A9FC268B00000000000000000000000045
:10254000000000000000000000000000000000008B
:10255000000000000000000000000000000000007B
:10256000000000000000000000000000000000006B
:10257000000000000000000000000000000000005B
:10258000000000000000000000000000000000004B
:10259000000000000000000000000000000000003B
:1025A000000000000000000000000000000000002B
:1025B000000000000000000000000000000000001B
:1025C000000000000000000000000000000000000B
:1025D00000000000000000000000000000000000FB
:1025E00020026006C24CC66C666666663663366359
:1025F00066660660FE7FFE7F0000000000000000AF
:1026000000000000000000000000000000000000CA
:1026100000000000000000000000000000000000BA
:1026200000000000000000000000000000000000AA
:10263000000000000000000000000000000000009A
:10264000000000000000000000000000000000008A
:10265000000000000000000000000000000000007A
:10266000000000000000000000000000000000006A
:10267000000000000000000000000000000000005A
:10268000000000000000000000000000000000004A
:10269000000000000000000000000000000000003A
:1026A000000000000000000000000000000000002A
:1026B000000000000000000000000000000000001A
:1026C000000000000000000000000000000000000A
:1026D00000000000000000000000000000000000FA
:1026E00000000000000000000000000000000000EA
:1026F00000000000000000000000000000000000DA
:1027000000000000000000000000000000000000C9
:1027100000000000000000000000000000000000B9
:1027200000000000000000000000000000000000A9
:102730000000000000000000000000000000000099
:102740000000000000000000000000000000FC3F4E
:10275000F81FF24F06600E700E700E700E700E7045
:102760000E700E7006600240000000000000024083
:1027700006600E700E700E700E700E700E700E7081
:102780000E700660F24FF81FFC3F000000000000D2
:102790000000020006000E000E000E000E000E00EB
:1027A0000E000E0006000200000000000000020003
:1027B00006000E000E000E000E000E000E000E00B1
:1027C0000E00060002000000000000000000FC3FB8
:1027D000F81FF20F06000E000E000E000E000E0095
:1027E0000E000E000E0006000200F81FFC3FF81F4E
:1027F0000040006000700070007000700070007099
:1028000000700060F04FF81FFC3F00000000FC3F2C
:10281000F81FF20F06000E000E000E000E000E0054
:102820000E000E0006000200F81FFC3FF81F020019
:1028300006000E000E000E000E000E000E000E0030
:102840000E000600F20FF81FFC3F00000000000021
:102850000000024006600E700E700E700E700E705A
:102860000E700E7006600240F81FFC3FF81F020059
:1028700006000E000E000E000E000E000E000E00F0
:102880000E00060002000000000000000000FC3FF7
:10289000F81FF04F00600070007000700070007052
:1028A0000070007000600040F81FFC3FF81F02003D
:1028B00006000E000E000E000E000E000E000E00B0
:1028C0000E000600F20FF81FFC3F00000000FC3F66
:1028D000F81FF04F00600070007000700070007012
:1028E0000070007000600040F81FFC3FF81F0240BD
:1028F00006600E700E700E700E700E700E700E7000
:102900000E700660F24FF81FFC3F00000000FC3F15
:10291000F81FF20F06000E000E000E000E000E0053
:102920000E000E0006000200000000000000020081
:1029300006000E000E000E000E000E000E000E002F
:102940000E00060002000000000000000000FC3F36
:10295000F81FF24F06600E700E700E700E700E7043
:102960000E700E7006600240F81FFC3FF81F024018
:1029700006600E700E700E700E700E700E700E707F
:102980000E700660F24FF81FFC3F00000000FC3F95
:10299000F81FF24F06600E700E700E700E700E7003
:1029A0000E700E7006600240F81FFC3FF81F020018
:1029B00006000E000E000E000E000E000E000E00AF
:1029C0000E000600F20FF81FFC3F000000000000A0
:1029D000F0FFFF03E4FFFF09CCFFFF0C9CFF7F0E1D
:1029E0003CFF3F0F7C00800F7C00800F7C00800F3D
:1029F0007C00800F7C00800F7C00800F7C00800FAB
:102A00007C00800F7C00800F7C00800F7C00800F9A
:102A10007C00800F7C00800F7C00800F7C00800F8A
:102A20007C00800F7C00800F7C00800F7C00800F7A
:102A30003C00000F1C00000E0C00000C04000008FD
:102A400000000000040000080C00000C1C00000C3A
:102A50003C00000E7C00000F7C00800F7C00800F8B
:102A60007C00800F7C00800F7C00800F7C00800F3A
:102A70007C00800F7C00800F7C00800F7C00800F2A
:102A80007C00800F7C00800F7C00800F7C00800F1A
:102A90007C00800F7C00800F7C00800F7C00800F0A
:102AA0007C00800F3CFF3F0F9CFF7F0ECCFFFF0C94
:102AB000E4FFFF09F0FFFF0300000000000000003A
:102AC00000000000040000000C0000001C000000DA
:102AD0003C0000007C0000007C0000007C00000046
:102AE0007C0000007C0000007C0000007C000000F6
:102AF0007C0000007C0000007C0000007C000000E6
:102B00007C0000007C0000007C0000007C000000D5
:102B10007C0000007C0000007C0000007C000000C5
:102B20003C0000001C0000000C000000040000003D
:102B300000000000040000000C0000001C00000069
:102B40003C0000007C0000007C0000007C000000D5
:102B50007C0000007C0000007C0000007C00000085
:102B60007C0000007C0000007C0000007C00000075
:102B70007C0000007C0000007C0000007C00000065
:102B80007C0000007C0000007C0000007C00000055
:102B90007C0000003C0000001C0000000C00000055
:102BA0000400000000000000000000000000000021
:102BB000F0FFFF03E4FFFF01CCFFFF009CFF7F005D
:102BC0003CFF3F007C0000007C0000007C00000017
:102BD0007C0000007C0000007C0000007C00000005
:102BE0007C0000007C0000007C0000007C000000F5
:102BF0007C0000007C0000007C0000007C000000E5
:102C00007C0000007C0000007C0000007C000000D4
:102C10003C0000001C000000CCFFFF00E4FFFF01AF
:102C2000F0FFFF03E0FFFF09C0FFFF0C0000000CF6
:102C30000000000E0000000F0000800F0000800F59
:102C40000000800F0000800F0000800F0000800F48
:102C50000000800F0000800F0000800F0000800F38
:102C60000000800F0000800F0000800F0000800F28
:102C70000000800F0000800F0000800F0000800F18
:102C80000000800F00FF3F0F80FF7F0EC0FFFF0C92
:102C9000E0FFFF09F0FFFF0300000000000000005C
:102CA000F0FFFF03E4FFFF01CCFFFF009CFF7F006C
:102CB0003CFF3F007C0000007C0000007C00000026
:102CC0007C0000007C0000007C0000007C00000014
:102CD0007C0000007C0000007C0000007C00000004
:102CE0007C0000007C0000007C0000007C000000F4
:102CF0007C0000007C0000007C0000007C000000E4
:102D00003C0000001C000000CCFFFF00E4FFFF01BE
:102D1000F0FFFF03E4FFFF01CCFFFF001C000000F9
:102D20003C0000007C0000007C0000007C000000F3
:102D30007C0000007C0000007C0000007C000000A3
:102D40007C0000007C0000007C0000007C00000093
:102D50007C0000007C0000007C0000007C00000083
:102D60007C0000007C0000007C0000007C00000073
:102D70007C0000003CFF3F009CFF7F00CCFFFF0079
:102D8000E4FFFF01F0FFFF0300000000000000006F
:102D900000000000040000080C00000C1C00000EE5
:102DA0003C00000F7C00800F7C00800F7C00800FB7
:102DB0007C00800F7C00800F7C00800F7C00800FE7
:102DC0007C00800F7C00800F7C00800F7C00800FD7
:102DD0007C00800F7C00800F7C00800F7C00800FC7
:102DE0007C00800F7C00800F7C00800F7C00800FB7
:102DF0003C00000F1C00000ECCFFFF0CE4FFFF099D
:102E0000F0FFFF03E4FFFF01CCFFFF001C00000008
:102E10003C0000007C0000007C0000007C00000002
:102E20007C0000007C0000007C0000007C000000B2
:102E30007C0000007C0000007C0000007C000000A2
:102E40007C0000007C0000007C0000007C00000092
:102E50007C0000007C0000007C0000007C00000082
:102E60007C0000003C0000001C0000000C00000082
:102E7000040000000000000000000000000000004E
:102E8000F0FFFF03E0FFFF09C0FFFF0C80FF7F0E94
:102E900000FF3F0F0000800F0000800F0000800F38
:102EA0000000800F0000800F0000800F0000800FE6
:102EB0000000800F0000800F0000800F0000800FD6
:102EC0000000800F0000800F0000800F0000800FC6
:102ED0000000800F0000800F0000800F0000800FB6
:102EE0000000000F0000000EC0FFFF0CE0FFFF0914
:102EF000F0FFFF03E4FFFF01CCFFFF001C00000018
:102F00003C0000007C0000007C0000007C00000011
:102F10007C0000007C0000007C0000007C000000C1
:102F20007C0000007C0000007C0000007C000000B1
:102F30007C0000007C0000007C0000007C000000A1
:102F40007C0000007C0000007C0000007C00000091
:102F50007C0000003CFF3F009CFF7F00CCFFFF0097
:102F6000E4FFFF01F0FFFF0300000000000000008D
:102F7000F0FFFF03E0FFFF09C0FFFF0C80FF7F0EA3
:102F800000FF3F0F0000800F0000800F0000800F47
:102F90000000800F0000800F0000800F0000800FF5
:102FA0000000800F0000800F0000800F0000800FE5
:102FB0000000800F0000800F0000800F0000800FD5
:102FC0000000800F0000800F0000800F0000800FC5
:102FD0000000000F0000000EC0FFFF0CE0FFFF0923
:102FE000F0FFFF03E4FFFF09CCFFFF0C1C00000C07
:102FF0003C00000E7C00000F7C00800F7C00800FE6
:103000007C00800F7C00800F7C00800F7C00800F94
:103010007C00800F7C00800F7C00800F7C00800F84
:103020007C00800F7C00800F7C00800F7C00800F74
:103030007C00800F7C00800F7C00800F7C00800F64
:103040007C00800F3CFF3F0F9CFF7F0ECCFFFF0CEE
:10305000E4FFFF09F0FFFF03000000000000000094
:10306000F0FFFF03E4FFFF01CCFFFF009CFF7F00A8
:103070003CFF3F007C0000007C0000007C00000062
:103080007C0000007C0000007C0000007C00000050
:103090007C0000007C0000007C0000007C00000040
:1030A0007C0000007C0000007C0000007C00000030
:1030B0007C0000007C0000007C0000007C00000020
:1030C0003C0000001C0000000C0000000400000098
:1030D00000000000040000000C0000001C000000C4
:1030E0003C0000007C0000007C0000007C00000030
:1030F0007C0000007C0000007C0000007C000000E0
:103100007C0000007C0000007C0000007C000000CF
:103110007C0000007C0000007C0000007C000000BF
:103120007C0000007C0000007C0000007C000000AF
:103130007C0000003C0000001C0000000C000000AF
:10314000040000000000000000000000000000007B
:10315000F0FFFF03E4FFFF09CCFFFF0C9CFF7F0E95
:103160003CFF3F0F7C00800F7C00800F7C00800FB5
:103170007C00800F7C00800F7C00800F7C00800F23
:103180007C00800F7C00800F7C00800F7C00800F13
:103190007C00800F7C00800F7C00800F7C00800F03
:1031A0007C00800F7C00800F7C00800F7C00800FF3
:1031B0003C00000F1C00000ECCFFFF0CE4FFFF09D9
:1031C000F0FFFF03E4FFFF09CCFFFF0C1C00000C25
:1031D0003C00000E7C00000F7C00800F7C00800F04
:1031E0007C00800F7C00800F7C00800F7C00800FB3
:1031F0007C00800F7C00800F7C00800F7C00800FA3
:103200007C00800F7C00800F7C00800F7C00800F92
:103210007C00800F7C00800F7C00800F7C00800F82
:103220007C00800F3CFF3F0F9CFF7F0ECCFFFF0C0C
:10323000E4FFFF09F0FFFF030000000000000000B2
:10324000F0FFFF03E4FFFF09CCFFFF0C9CFF7F0EA4
:103250003CFF3F0F7C00800F7C00800F7C00800FC4
:103260007C00800F7C00800F7C00800F7C00800F32
:103270007C00800F7C00800F7C00800F7C00800F22
:103280007C00800F7C00800F7C00800F7C00800F12
:103290007C00800F7C00800F7C00800F7C00800F02
:1032A0003C00000F1C00000ECCFFFF0CE4FFFF09E8
:1032B000F0FFFF03E4FFFF01CCFFFF001C00000054
:1032C0003C0000007C0000007C0000007C0000004E
:1032D0007C0000007C0000007C0000007C000000FE
:1032E0007C0000007C0000007C0000007C000000EE
:1032F0007C0000007C0000007C0000007C000000DE
:103300007C0000007C0000007C0000007C000000CD
:103310007C0000003CFF3F009CFF7F00CCFFFF00D3
:10332000E4FFFF01F0FFFF030000000000000000C9
:10333000E0FFFF00C0FF7F0088FF3F0218FF1F0370
:1033400038FE8F037800C003F800E003F800E003C4
:10335000F800E003F800E003F800E003F800E00301
:10336000F800E003F800E003F800E003F800E003F1
:10337000F800E0037800C00338FE8F0318FF1F0336
:1033800088FF3F02C0FF7F00E0FFFF000000000059
:10339000000000000000000000000000000000002D
:1033A000000000000000000000000000000000001D
:1033B000000000000000000000000000000000000D
:1033C00000000000000000000000000000000000FD
:1033D00000000000000000000000000000000000ED
:1033E00000000000000000000000000000000000DD
:1033F00000000000000000000000000000000000CD
:1034000000000000000000000000000000000000BC
:1034100000000000000000000000000081828384A2
:1034200085868788898B8C8D8E8F919293959697C0
:10343000999A9C9D9FA0A2A3A5A7A8AAACAEB0B242
:10344000B3B5B7B9BCBEC0C2C5C7C9CCCED1D4D73D
:10345000D9DCDFE2E6E9ECF0F3F7FAFE7C340008B1
:1034600000000020AC010000A6050008203500087F
:10347000AC010020A40B0000F40000080125022A82
:10348000021321071408A10A02100822406A20042E
:103490001AD004E928137002332001601BC4E8E04D
:1034A000EF20EFEEE4E4E5F0E6E0EDE8FFCAE0EB64
:1034B000E8E1F0EEE2EAE03DCFC8C4200171300E51
:1034C000CEE120F3F1F2F0EEE9F1F2E2E51AF85C78
:1034D0001348015B20686C13D1061408510B1B08BC
:1034E000900CC1196D3988091228298881294C2925
:1034F00054091228B202294C2954091228AA037827
:1035000013080D13EC171508201020134C23150871
:10351000301E3C13CC29C2081A010201140000001D
:04000005080001717D
:00000001FF
